:020000040800F2
:1000000010250020650200087F2C00085F220008F0
:100010007D2C0008F30500080934000800000000EA
:10002000000000000000000000000000CD010008FA
:10003000F50500080000000011020008012F00086B
:100040007F0200087F0200087F0200087F0200088C
:100050007F0200087F0200087F0200087F0200087C
:100060007F0200087F0200087F0200087F0200086C
:100070007F0200087F0200087F0200087F0200085C
:100080007F0200087F0200087F0200087F0200084C
:100090007F0200087F0200087F0200087F0200083C
:1000A000A12F0008C52F0008B92F0008AD2F0008A8
:1000B0007F0200087F020008D12F00087F0200089D
:1000C0007F0200087F0200087F0200087F0200080C
:1000D0007F020008FD3300087F0200087F0200084D
:1000E000F70500087F0200087F0200087F02000871
:1000F0007F0200087F0200087F0200087F020008DC
:100100007F0200087F0200087F0200087F020008CB
:100110007F0200087F0200087F0200087F020008BB
:100120007F0200087F0200087F0200087F020008AB
:1001300000F002F800F03AF80AA090E8000C8244BF
:100140008344AAF10107DA4501D100F02FF8AFF29C
:10015000090EBAE80F0013F0010F18BFFB1A43F0A5
:1001600001031847786E0000986E0000103A24BF13
:1001700078C878C1FAD8520724BF30C830C144BF0C
:1001800004680C607047000000230024002500264E
:10019000103A28BF78C1FBD8520728BF30C148BFEA
:1001A0000B6070471FB51FBD10B510BD00F0C1F941
:1001B0001146FFF7F7FF03F038F900F0DFF903B459
:1001C000FFF7F2FF03BC00F0E3F90000224B1968CF
:1001D0000868B0E8F00F80F30988BFF36F8F4FF025
:1001E000000080F311884EF00D0E704700000000F3
:1001F00006480068006880F3088862B661B6BFF3FD
:100200004F8FBFF36F8F00DF00BF00BF08ED00E02E
:10021000EFF30980BFF36F8F0F4B1A6820E9F00FDF
:10022000106008B54FF0500080F31188BFF34F8F76
:10023000BFF36F8F04F010F94FF0000080F31188C6
:10024000BDE8084019680868B0E8F00F80F3098835
:10025000BFF36F8F704700BF14000020EFF30580DD
:10026000704700000948804709480047FEE7FEE75D
:10027000FEE7FEE7FEE7FEE7FEE7FEE7FEE7FEE756
:1002800004480549054A064B704700009F2F0008A7
:1002900031010008101F002010250020102100202F
:1002A0001021002053EA020C00F069802DE9F04B88
:1002B0004FF00006002B1FBFB3FA83F503FA05F4D5
:1002C00024FA05F65E4012BF1643B2FA82F502FA2E
:1002D00005F4C5F120051EBF22FA05FC44EA0C0412
:1002E000203556EA044C4FEA144418BF641C4FF002
:1002F00000084FF00009904271EB030C39D300293C
:1003000019BFB1FA81F701FA07F6B0FA80F700FADF
:1003100007F6C7F120071EBF20FA07FC46EA0C06C5
:100320002037B6FBF4FCA7EB0507103F07F01F0BC7
:10033000CBF120060CFA0BFB2CFA06F644BFB346B1
:100340000026202FA4BF5E464FF0000B5BEA060C90
:1003500008BF4FF0010B19EB0B09ABFB027C48EB1C
:100360000608C01B06FB02CC0BFB03CC71EB0C0197
:10037000C1E70B46024641464846BDE8F08B13B53F
:100380004FF000004FF00001AFF30080BDE81C40CB
:100390007047032A40F2308010F0030C00F0158003
:1003A00011F8013BBCF1020F624498BF11F801CB78
:1003B00000F8013B38BF11F8013BA2F1040298BFDD
:1003C00000F801CB38BF00F8013B11F0030300F047
:1003D0002580083AC0F0088051F8043B083A51F8EB
:1003E00004CBA0E80810F5E7121D5CBF51F8043BF0
:1003F00040F8043BAFF30080D20724BF11F8013B63
:1004000011F801CB48BF11F8012B24BF00F8013BC4
:1004100000F801CB48BF00F8012B704710B5203A17
:10042000C0F00B80B1E81850203AA0E81850B1E8AD
:100430001850A0E81850BFF4F5AF5FEA027C24BF63
:10044000B1E81850A0E8185044BF18C918C0BDE85A
:1004500010405FEA827C24BF51F8043B40F8043B23
:1004600008BF7047D20728BF31F8023B48BF11F8D8
:10047000012B28BF20F8023B48BF00F8012B704732
:1004800002F0FF0343EA032242EA024200F002B80C
:100490004FF000020429C0F0128010F0030C00F0AD
:1004A0001B80CCF1040CBCF1020F18BF00F8012B2B
:1004B000A8BF20F8022BA1EB0C0100F00DB85FEAF9
:1004C000C17C24BF00F8012B00F8012B48BF00F8C5
:1004D000012B70474FF0000200B513469446964634
:1004E000203922BFA0E80C50A0E80C50B1F1200147
:1004F000BFF4F7AF090728BFA0E80C5048BF0CC0F5
:100500005DF804EB890028BF40F8042B08BF704752
:1005100048BF20F8022B11F0804F18BF00F8012BC4
:10052000704770477047704700487047B01E002002
:1005300070477546FFF7F8FFAE460500694653461B
:1005400020F00700854618B020B5FFF799FEBDE8FA
:1005500020404FF000064FF000074FF000084FF02A
:10056000000B21F00701AC46ACE8C009ACE8C009BB
:10057000ACE8C009ACE8C0098D46704710B5044628
:10058000AFF300802046BDE81040FFF718BE000022
:1005900001491820ABBEFEE72600020070B50446F4
:1005A00000688168C943C90717D1816821F001013A
:1005B000816000F06DFB05460AE000BF00F068FBBB
:1005C000401B022804D920688068C043C00706D0B9
:1005D00020688068C043C007F0D0002070BDA06ACA
:1005E00040F01000A062E06A40F00100E0620120EB
:1005F00070BDFEE770474FF4006000F03BBA72B682
:10060000FEE7000070B5154601F1270293B200F134
:10061000270292B202F00CF900244FF4C86600BF22
:1006200005EB440115F81400497840EA012002F076
:1006300085F9641CB442F3DB064841880088491EF2
:10064000401EBDE870408BB282B20021084602F025
:10065000EFB80000A01E0020F8B50024009490F828
:1006600024202546012A12D0012280F824204A683D
:100670001F23072A0DD20668776B521E02EB8202F7
:1006800093409F430B6893401F43776319E0022018
:10069000F8BD06680D2A0AD2376BD21F02EB820220
:1006A00093409F430B6893401F43376309E0F76A09
:1006B0000D3A02EB820293409F430B6893401F4325
:1006C000F7620A68072306680A2A0AD3F7680A3A13
:1006D00002EB420293409F438B6893401F43F760B5
:1006E00008E0376902EB420293409F438B689340D6
:1006F0001F4337610A68102A01D0112A20D1124BFA
:1007000002689A4217D193681B0219D4936843F484
:10071000000393600968102912D10C490C4A09683A
:10072000B1FBF2F101EB8101490000E0491E0091AB
:100730000029FBD104E0816A41F02001816201249B
:1007400080F824502046F8BD00240140100000200D
:1007500040420F002DE9F04104004FF000057FD02A
:10076000A06A002628B9E66284F82460204600F0DA
:1007700081F82046FFF712FFA16AC90600D420B114
:10078000A06A40F01000A0626AE0A16A21F48851DA
:1007900041F00201A162334923688B42E16904D12F
:1007A000B1F5402F01D14FF40021277B4FF4807C1D
:1007B00041EA470261680A43A168614508D00129FE
:1007C00006D0002194F814E0BEF1010F02D00AE037
:1007D0006146F7E7C7B1A76A47F02007A762E76A53
:1007E00047F00107E7625F6827F469470F435F60DE
:1007F000236899681C4F394011439960A16861458D
:100800000BD0012909D00CE0DFF860E0A7690EEBFE
:1008100047370F4347F40061E5E7218A0D05A5F549
:1008200080152168CB6A23F470032B43CB622168C7
:1008300089680F4B1940914208D1E662A16A21F004
:10084000020141F00101A162BDE8F081A06A20F03F
:10085000020040F01000A062E06A40F00100E06297
:100860000120F1E7003C0140FDF7E1FF00E0FFFF60
:10087000FE0E1FFF00B585B000210091019102918D
:10088000039100680E49884218D10E48816941F4ED
:1008900000718161816901F400710491816941F005
:1008A000040181618069694600F004000490082019
:1008B000009003200190044800F0E8F805B000BD66
:1008C00000240140001002400008014010B590F8DB
:1008D00021100022022905D00421816380F8202004
:1008E000012010BD01680B6823F00E030B60016846
:1008F0000B6823F001030B6090F84030C46B0121BA
:1009000001FA03F3636080F8211080F8202010467C
:1009100010BD00002DE9F05F90F82110002402299D
:1009200003D004218163012485E001680A6822F074
:100930000E020A6001680A6822F001020A603F4E56
:100940003E4FB215DFF8F4C0DFF8F090DFF8ECA00E
:10095000DFF8E8B0DFF8E4E00168783F1301150242
:10096000ACF1640CA9F15009AAF13C0AABF1280BD7
:10097000AEF1140E4FF48018B14227D9B9420ED00F
:10098000614512D049451DD0514518D0594518D060
:10099000714501D1424615E0294EB14201D10122F3
:1009A00010E0274E1436B14201D110220AE0244E45
:1009B0002836B14206D0224A3C32914201D11A4631
:1009C00000E02A461E49091F0A602BE0B94213D0F5
:1009D000614517D0494522D051451DD059451DD0FC
:1009E000714501D142461AE0B14202D14FF0807206
:1009F00015E0134EB14201D1012210E0104E143621
:100A0000B14201D110220AE00D4E2836B14206D083
:100A10000B4A3C32914201D11A4600E02A4607496E
:100A200080394A60012180F82110002180F82010CF
:100A3000416B01B188472046BDE8F09F800002402D
:100A40000804024070B5044600F022F90546601C17
:100A500002D004480078044400F01AF9401BA04278
:100A6000FAD370BD04000020B0F5006F01D101F091
:100A70003FBE7047044910B50A68024202D00860C0
:100A8000FFF7F2FF10BD0000140401402DE9F84FFC
:100A9000DFF8C8910024A9F1040B23460F2709F1C0
:100AA000040AABF1040ED1E00125A54006EA0502D7
:100AB000AA4276D1DFF8A8C14E68A6EB0C086645BD
:100AC0002BD00DDC032E34D005DC36B3012E19D02B
:100AD000022E2FD11BE0112E16D0122E2AD119E092
:100AE000B8F5881F19D006DCB8F5803F15D0B8F5E9
:100AF000801F1FD111E0B8F5001F0ED0B8F5041FFC
:100B000018D10AE0CB6815E0CB681B1D12E0CB685A
:100B100008330FE0CB680C330CE08B682BB1012B52
:100B20004FF0080303D0456104E0042302E00561AF
:100B300000E00023FF2A01D8064601E000F1040688
:100B40004FEA840501D9A5F12005D6F8008007FAFF
:100B500005FC28EA0C0803FA05F548EA0508C6F87A
:100B600000804D68ED0070D53E4DAE6946F001063F
:100B7000AE61AD6924F0030605F0010500953A4D1C
:100B800006EB050CDCF80850A607360F07FA06F846
:100B900025EA0805DFF8D480404503D14FF000086E
:100BA00025E052E0DFF8C880404502D14FF001084F
:100BB0001DE0DFF8C080404502D14FF0020816E08A
:100BC000DFF8B480404502D14FF003080FE0DFF8B2
:100BD000AC80404502D14FF0040808E0DFF8A08067
:100BE000404502D14FF0050801E04FF0060808FA31
:100BF00006F848EA0508CCF808804D68D9F8006086
:100C0000ED024D4601D5164300E096432E604D6837
:100C1000DAF80060AD02554601D5164300E0964370
:100C20002E604D68DBF80060AD035D4601D51643CC
:100C300000E096432E604D68DEF80060ED037546D7
:100C400001D5164300E096432E60641C0A681646E0
:100C5000E2407FF429AFBDE8F88F000008040140AE
:100C60000000111000100240000001400008014087
:100C7000000C014000100140001401400018014028
:100C8000001C01400AB1016170470904FBE7000044
:100C900001488068704700000400002070B504001F
:100CA00025D094F83D00002520B984F83C5020461A
:100CB00000F0E6F9242084F83D002068016821F066
:100CC000010101602068016841F400410160206871
:100CD000016821F40041016000F000FC4D4A6168A8
:100CE000914201D84C4900E04C49884201D2012090
:100CF00070BD4B492368B0FBF1F15E6826F03F06FA
:100D00000E435E606368934206D94FF4967359436D
:100D10004FF47A73B1FBF3F12368491C1E6A26F085
:100D20003F06314319626168914210D84900401E64
:100D3000B0FBF1F2521CC2F30B02042A01D20420D0
:100D400022E0B0FBF1F0401CC0F30B001CE0A268F5
:100D5000F2B301EBC10303EB0116431EB3FBF6F341
:100D60005B1C43F480431B0549D092B301EBC102E5
:100D700002EB0111401EB0FBF1F0401CC0F30B0070
:100D800040F4804040F400402168CA694CF6FF738B
:100D90009A431043C861D4E90710014320680268F0
:100DA00022F0C00211430160D4E90301014320682D
:100DB000826848F2FF339A4311438160D4E9050108
:100DC00008432168CA6822F0FF021043C86001E0AE
:100DD0000EE016E02068016841F001010160256421
:100DE000202084F83D00256384F83E50002070BD2B
:100DF00001EB4106431EB3FBF6F35B1CB3E7012096
:100E0000C2E701EB4101401EB0FBF1F0401CC0F312
:100E10000B00B7E7A086010080841E0000093D009A
:100E200040420F002DE9F84F1F4690468A4604467F
:100E3000DDF82890FFF72CFF054694F83D002028A8
:100E40007FD11923012240492046009501F0EEFA96
:100E5000002876D194F83C00012872D0012084F853
:100E60003C0020680168C90703D1016841F0010115
:100E700001602068016821F400610160212084F88C
:100E80003D00102084F83E0000262664C4F824802B
:100E90006785608D20852D48E0622B464A46514685
:100EA000204601F0F5F990B9206841698069009009
:100EB00036E02A464946204601F05EFB50B1206CE0
:100EC000042804D12068016841F400710160012008
:100ED000BDE8F88F606A216800780861606A401C8C
:100EE0006062618D491E6185218D491E89B221850F
:100EF00022685369DB435B070BD451B10078106162
:100F0000606A401C6062608D401E6085208D401EBE
:100F100020852A464946204601F05CFA0028CED1B9
:100F2000208D0028C5D154F83D0B016841F40071B3
:100F30000160202004F81E09E67766770020C7E7E5
:100F4000FFE70220C4E70000020010000000FFFFDE
:100F50002DE9FF4F83B09A46DDE911979346044689
:100F6000DDF84080FFF794FE054694F83D00202808
:100F70007FD11923012240492046009501F056FAFD
:100F8000002876D194F83C00012872D0012084F822
:100F90003C0020680168C90703D1016841F00101E4
:100FA00001602068016821F400610160212084F85B
:100FB0003D00402084F83E0000262664C4F82480CA
:100FC000A4F82A90608D20852C48E062CDE9007558
:100FD00053465A462046049901F0A8F970B930E00A
:100FE0002A463946204601F0C7FA58B1206C042839
:100FF00004D12068016841F400710160012007B04C
:10100000BDE8F08F606A216800780861606A401C62
:101010006062218D491E89B22185628D521E6285D2
:1010200022685369DB435B070BD469B10078106118
:10103000606A401C6062208D401E2085608D401ECD
:101040006085208D0028CBD12A463946204601F004
:10105000C1F90028CAD154F83D0B016841F4007170
:101060000160202004F81E09E67766770020C6E7B5
:10107000FFE70220C3E70000020010000000FFFFAE
:1010800010B586B000210091019102910391006892
:101090001349884222D1134CA06940F00800A06196
:1010A000A069694600F0080004904FF44070009079
:1010B00012200190032003900B48FFF7E7FC0B4838
:1010C000416841F0E06141F002014160E06940F4B3
:1010D0000010E061E06900F40010049006B010BD5B
:1010E0000054004000100240000C0140000001408C
:1010F0000248816802781144816070470400002032
:10110000074810B5016841F010010160032000F0AC
:10111000A7F8002000F006F800F050F8002010BDFD
:101120000020024030B505461F4887B0C16941F034
:101130000401C161C06906A900F00400009001A883
:1011400000F0ACF90498B0B100F0C8F940001749BC
:10115000174AB0FBF1F11748491E0260416040F2A6
:10116000E7320021C0E903218160816100F080FC49
:10117000040003D015E000F0B1F9E8E70D4800F0F5
:10118000A5FC04000DD11E2000F03CF8102D07D264
:10119000002229461E2000F043F80748056000E0C1
:1011A000012407B0204630BD0010024040420F002D
:1011B000000800401C020020080000200F4808B56D
:1011C000816941F001018161816901F001010091B2
:1011D000C16941F08051C161C069002200F08050B6
:1011E00000900F21901E00F01BF80548416821F087
:1011F000E06141F00071416008BD00000010024054
:1012000000000140002809DB00F01F02012191408D
:101210004009800000F1E020C0F800117047000094
:10122000F0B40E4B1B680C46C3F30223C3F1070551
:10123000042D00D90425191D072901D2002300E03F
:10124000DB1E012606FA05F1491E214099409E4009
:10125000761E16403143F0BC02F0D7B80CED00E02A
:10126000064900F0070208684FF6FF03184040EAFD
:101270000220034A10430860704700000CED00E0B4
:101280000000FA052DE9F84305460078354CC00703
:1012900054D0E0690026C00008D4E06940F08050D6
:1012A000E061E069012600F0805000902E4801685E
:1012B000C90512D40168804641F480710160FFF7CE
:1012C000E7FC074605E000BFFFF7E2FCC01B64280F
:1012D00023D8D8F80000C005F6D5206A10F4407075
:1012E00021D0A98801F4407181421CD0206A1F4995
:1012F000012220F440700A6000220A602062C007C8
:1013000011D0FFF7C5FC074641F2883808E000BF5E
:10131000FFF7BEFCC11B414502D90320BDE8F8839D
:10132000206A8007F4D5206A696820F44070084379
:1013300020621EB1E06920F08050E06128788007CB
:1013400005D56068A96820F44040084360602878AB
:10135000C00605D56068696920F4800008436060B4
:101360000020DBE7001002400070004040044242D1
:101370002DE9F0470F46050061D0434E306800F07C
:101380000700B84209D2306820F0070038433060C7
:10139000306800F00700B84251D128683B4C810703
:1013A00012D5400703D5606840F4E060606028789B
:1013B000000703D5606840F4605060606068A96809
:1013C00020F0F000084360602878C00728D06868E3
:1013D000012810D02168022810D0890700292EDAB0
:1013E000616821F0030101436160FFF751FC804611
:1013F00041F288390DE021688903EFE78901EDE7C3
:10140000FFF746FCA0EB0801494502D90320BDE8DF
:10141000F0876068696800F00C00B0EB810FEFD1D5
:10142000306800F00700B8420BD9306820F00700A0
:1014300038433060306800F00700B84201D0012026
:10144000E5E72878400705D56068E96820F4E060A2
:10145000084360602878000706D56068296920F491
:10146000605040EAC100606000F058F86168084AC6
:10147000C1F30311515CC840064908600648006882
:10148000FFF750FE0020C2E700200240001002409B
:101490006E4E000810000020080000200F2202609D
:1014A0000C4A536803F003034360536803F0F003EE
:1014B0008360536803F4E063C36052684FF4E063F1
:1014C00003EAD20202610448006800F007000860E5
:1014D0007047000000100240002002400448054907
:1014E00000684968044AC1F30221515CC840704752
:1014F00010000020001002407E4E000804480549FC
:1015000000684968044AC1F3C221515CC840704771
:1015100010000020001002407E4E00080E4A516864
:101520000E4801F00C03042B11D0082B0FD10C48EE
:10153000C1F38343C903C05C0AD55168084AC1F3AB
:101540004041921E515C054A5043B0FBF1F0704798
:1015500004494843704700000010024000127A001E
:101560005E4E000800093D002DE9F84F040070D0E0
:101570002078C04DC00749D06868C0F381000128B9
:1015800007D06868C0F38100022809D16868C003E9
:1015900006D52868800339D560680028E7D035E093
:1015A0006068B0F5803F0BD010B1B0F5A02F11D01E
:1015B000286820F480302860286820F4802002E029
:1015C000286840F480302860606890B1FFF760FBC5
:1015D00006460AE0286840F480202860F0E700BF53
:1015E000FFF756FB801B642873D828688003F7D563
:1015F0000CE0FFF74DFB064605E000BFFFF748FB98
:10160000801B6428F0D828688003F7D420789A4E8D
:1016100080074FF001094FF0000839D5686810F0D5
:101620000C0F07D06868C0F38100022809D16868F0
:10163000C00306D42868800714D52069012808D182
:1016400010E02069B0B1C6F80090FFF721FB074613
:1016500005E00AE1FFF71CFBC01B0228C4D828687C
:101660008007F7D52868616920F0F80040EAC100DA
:1016700028600DE0C6F80080FFF70AFB074604E08B
:10168000FFF706FBC01B022823D828688007F7D481
:10169000207800072CD57948A169D9B1C0F800900D
:1016A000FFF7F6FA074604E0FFF7F2FAC01B02283C
:1016B0000FD8686A8007F7D571484FF4FA5100686F
:1016C000B0FBF1F0009000BF0098411E0091FAD2EB
:1016D0000EE080E0C0F80080FFF7DAFA074604E089
:1016E000FFF7D6FAC01B022875D8686A8007F7D4BE
:1016F0002078400760D5E8690027C00008D4E86971
:1017000040F08050E861E869012700F080500090C7
:101710005C480168C90513D40168834641F48071AF
:101720000160FFF7B5FA824606E000BFFFF7B0FAA6
:10173000A0EB0A0064284ED8DBF80000C005F5D500
:10174000E06801280AD008B1052813D0286A20F0E3
:1017500001002862286A20F0040002E0286A40F0B4
:1017600001002862E06841F2883B98B1FFF790FAE7
:1017700082460BE0286A40F004002862EEE700BFD2
:10178000FFF786FAA0EB0A0159455AD8286A800764
:10179000F6D50CE0FFF77CFA824605E0FFF778FA11
:1017A000A0EB0A0159454CD8286A8007F6D41FB12E
:1017B000E86920F08050E861E06988B36968C1F3A6
:1017C0008101022944D00228C6F8608004D0FFF7C6
:1017D0005FFA044638E034E0FFF75AFA074604E0BF
:1017E000FFF756FAC01B02282BD828688001F7D4CF
:1017F000206AB0F5803F05D16868A16820F4003008
:1018000008436860D4E908010843696821F4741149
:1018100008436860C6F86090FFF73AFA044606E0AD
:1018200025E000BFFFF734FA001B022809D828681A
:101830008001F7D51BE000BFFFF72AFA001B022842
:1018400002D90320BDE8F88F28688001F4D40EE0A7
:101850000128F7D06868226A00F48031914204D1EF
:10186000616A00F47010884201D00120EAE700208C
:10187000E8E70000001002400000424280044242BB
:10188000100000200070004070B5040009D0606AAC
:10189000002540B125616561A56294F8510040B111
:1018A0000CE0012070BD6068B0F5827FF4D0E56186
:1018B000F2E784F85050204600F040F8022084F807
:1018C00051002068016821F040010160A088218951
:1018D00000F4827001F404410843A18901F400611D
:1018E0000843217C01F002010843217D01F0010140
:1018F0000843218B01F400710843217F01F0380176
:10190000084394F8201001F080010843218D01F470
:101910000051084321680860A069042101EA1040D1
:10192000216848602068C16921F40061C161656572
:10193000012084F85100002070BD000000B585B082
:1019400000210091019102910391006810498842A1
:101950001BD11048C16941F48041C161C16901F4E2
:1019600080410491816941F0080181618069694683
:1019700000F0080004904FF42040009002200190F5
:10198000032003900448FFF781F805B000BD000074
:101990000038004000100240000C014070477047C2
:1019A00010B590F83C20012A22D0012280F83C207A
:1019B000CA688C6822F4407222434C6822F4806228
:1019C00022430C6822F4006222430C6922F4805204
:1019D00022434C6922F400522243C969002322F4B5
:1019E00080420A4301684A6480F83C30002010BD00
:1019F000022010BD70B590F83C20012A2CD00124A3
:101A000080F83C40022280F83D2003685A689D68B7
:101A100022F070060A6832435A60104B02689A42FC
:101A20000ED00F4B9A420BD0B2F1804F08D00D4B25
:101A30009A4205D00C4B9A4202D00C4B9A4204D1E8
:101A4000496825F080031943916080F83D400021EA
:101A500080F83C10084670BD022070BD002C01408B
:101A6000003401400004004000080040000C004029
:101A700010B5040003D094F83D0010B107E0012038
:101A800010BD002084F83C00204600F01EF8022023
:101A900084F83D00211D206801F0A0FA012084F89F
:101AA000460084F83E0084F83F0084F8400084F843
:101AB000410084F8420084F8430084F8440084F82C
:101AC000450084F83D00002010BD704790F83D109F
:101AD000012901D001207047022180F83D100168E2
:101AE000CA6842F00102CA6000680E4988420ED0FE
:101AF0000D4988420BD0B0F1804F08D00B49884285
:101B000005D00B49884202D00A49884204D1816835
:101B100001F00701062903D0016841F001010160CD
:101B200000207047002C01400034014000040040B8
:101B300000080040000C0040704770B50446006883
:101B400001694FF00005C943890715D4C168C9432D
:101B5000890711D4E91E016101202077206880697E
:101B60008007204602D0FFF7E7FF04E000F0BEF850
:101B7000204600F085F9257720680169C9434907A7
:101B800017D4C168C943490713D46FF00401016138
:101B9000022020772068806910F4407F204602D020
:101BA000FFF7CAFF04E000F0A1F8204600F068F952
:101BB000257720680169C943090716D4C168C9435C
:101BC000090712D46FF00801016104202077206812
:101BD000C0698007204602D0FFF7AEFF04E000F0A6
:101BE00085F8204600F04CF9257720680169C94343
:101BF000C90617D4C168C943C90613D46FF01001D0
:101C00000161082020772068C06910F4407F2046D9
:101C100002D0FFF791FF04E000F068F8204600F0E2
:101C20002FF9257720680169C943C90708D1C16820
:101C3000C943C90704D1891E0161204600F022F979
:101C400020680169C943090609D4C168C943090666
:101C500005D46FF0800101612046FFF79FFE2068E8
:101C60000169C943490609D4C168C943490605D475
:101C70006FF040010161204600F00EF92068016913
:101C8000C94389060BD4C168C943890607D46FF0DC
:101C9000200101612046BDE87040FFF780BE70BDA5
:101CA00000B585B000210091019102910391006877
:101CB0000B49884212D10B48816941F004018161CE
:101CC0008069694600F0040004904FF48070009031
:101CD0000220019003900448FEF7D8FE05B000BD35
:101CE000002C01400010024000080140704770B510
:101CF000044690F83C0000260D4601280FD0012034
:101D000084F83C006AB1042A1DD0082A2FD00C2A7E
:101D10003FD00126002084F83C00304670BD0220F0
:101D200070BD206801F0A0F92068816941F00801C8
:101D300081612068816921F00401816120688169E5
:101D40002A69114311E0206801F0BEF92068816919
:101D500041F4006181612068816921F480618161C1
:101D6000206881692A6941EA02218161D2E72068FD
:101D700001F0E0F92068C16941F00801C161206803
:101D8000C16921F00401C1612068C1692A69114358
:101D900011E0206801F002FA2068C16941F4006195
:101DA000C1612068C16921F48061C1612068C16995
:101DB0002A6941EA0221C161ACE710B5040003D0F1
:101DC00094F83D0010B107E0012010BD002084F818
:101DD0003C00204600F01EF8022084F83D00211D42
:101DE000206801F0FBF8012084F8460084F83E00EA
:101DF00084F83F0084F8400084F8410084F84200F1
:101E000084F8430084F8440084F8450084F83D00D9
:101E1000002010BD08B50068174988422AD117482C
:101E2000816941F4006181618069002200F40060F1
:101E3000009005211820FFF7F3F91820FFF7E2F9C9
:101E4000002205211920FFF7EBF91920FFF7DAF935
:101E5000002205211A20FFF7E3F91A20FFF7D2F933
:101E6000002205211B20FFF7DBF9BDE808401B20FD
:101E7000FFF7C8B908BD0000002C01400010024067
:101E80007047000000680349884201D1FFF730B96C
:101E9000704700000008004070477047704700001E
:101EA000F8B5016804460868CA684B6910F00F0F5E
:101EB0004FF0000559D003F0010602F49077374344
:101EC00065D0C10705D0D10503D5616C41F0010192
:101ED0006164410705D5D90703D0616C41F0020167
:101EE0006164810705D5D90703D0616C41F0040115
:101EF0006164010707D502F02001314303D0616C12
:101F000041F008016164616C00293AD0800604D573
:101F1000900602D5204601F098F920684069616C6E
:101F2000C0F38010090700D460B3204601F066F9C1
:101F300020684069400621D52068143050E8001F11
:101F400021F0400140E80012002AF5D1E06BA8B171
:101F50006D494163E06BFEF7DDFC002811D0E06BBA
:101F6000416B01B0BDE8F040084783060FD59306EA
:101F70000DD52046BDE8F84001F067B92046FFF7CF
:101F80008DFFF8BD2046FFF789FF6564F8BD266B1D
:101F90002023012E7CD1C6067AD5D60678D50868CE
:101FA0004868009048694FF00206400640D5E16B52
:101FB000086840680004000CE8D0A28D8242E5D990
:101FC000E085886920282DD020680C3050E8001F5B
:101FD00021F4807140E80012002AF5D12068143005
:101FE00050E8001F21F0010140E80012002AF5D15D
:101FF0002068143050E8001F21F0400140E8001232
:10200000002AF5D184F84230256320680C3050E86E
:10201000001F21F0100140E80012002AF5D1E06B0A
:10202000FEF754FC6663A08DE18D401A81B22AE070
:10203000A08DE18D401A81B2E08D0028A6D0002944
:10204000A4D022680C3252E8000F20F4907042E8CD
:102050000007002FF5D12068143050E8002F22F03F
:10206000010240E80027002FF5D184F842302563B3
:1020700020680C3050E8002F22F0100240E80023C6
:10208000002BF5D166632046FFF707FFF8BDFFE799
:1020900005062BD5150629D594F841002128F5D140
:1020A000A068B0F5805F01D12069B0B1206A411C01
:1020B0002162216800784860E08C401E0004000C1A
:1020C000E084E3D12068C16821F08001C16020680C
:1020D000C16841F04001C160D8E7206A0088C0F3C0
:1020E00008004860206A801C2062E5E74006CDD5E4
:1020F0005006CBD5CA68204622F04002CA6084F858
:10210000413000F0ABF8C1E7ED31000870B50400D4
:1021100004D094F84100002510B106E0012070BD04
:1021200084F84050204600F023F8242084F8410031
:102130002068C16821F40051C160204601F0E6F832
:102140002068016921F4904101612068416921F012
:102150002A0141612068C16841F40051C160656491
:10216000202084F8410084F842006563002070BD9F
:1021700030B585B000240094019402940394006863
:10218000184988422CD11848816941F48041816105
:10219000816901F480410491816941F00401816108
:1021A0008069124D00F0040004904FF4007000901C
:1021B000022001900320039069462846FEF766FC42
:1021C0002815CDE90004694628460294FEF75EFC16
:1021D000002205212520FFF723F82520FFF712F81C
:1021E00005B030BD00380140001002400008014039
:1021F00090F84230202B01D00220704721B11AB153
:102200000023036301F0DEB801207047104930B4A9
:1022100088421AD10F4841880A040DD402785A2AFC
:1022200010D0C1F30E030C4C491C89B2E25441801A
:10223000C72901D90021418030BC01220549044849
:10224000FFF7D6BF41F40041F5E730BC704700000E
:10225000D401002094000020381B00207047FEE7C6
:1022600001684A69D24352050FD46FF480624A6113
:10227000002140F8301F202242738173026942F02E
:1022800004020261017301207047002070470000C2
:10229000F8B50446C06A1E460D461746082807D002
:1022A000012805D010F5803F02D0206B122804D100
:1022B0002068016841F480710160134600224FF0EC
:1022C00001112046009600F0B1F840B12068006886
:1022D000C00502D54FF4007020640320F8BD2069CA
:1022E000B0F5804F0ED00620216800EAD51040F0EE
:1022F000F000086133463A460B49204600F0DEF80C
:1023000078B902E005F0FE0000E0E8B2216808615B
:10231000054933463A46891F204600F0CFF8002889
:10232000DCD00120F8BD0000080001002DE9F843D1
:10233000044600680D46DDE9089701689846164690
:1023400041F4807101604B4600224FF0011120469C
:10235000009700F06BF848B120680068C00502D50E
:102360004FF4007020640320BDE8F883216805F075
:10237000FE0008613B464A461549204600F09EF89B
:1023800088B920684169806900903A4649462046EC
:1023900000F0F2F848B1206C042804D120680168EC
:1023A00041F4007101600120DEE7F5B2B8F1010FE0
:1023B00009D02168300A08613A464946204600F0B3
:1023C000DBF80028E7D1206805610020CCE7000099
:1023D0000200010070B516460D4604461EE0204678
:1023E000FFF73EFF08B1012070BD681C16D0FEF754
:1023F0004FFC801BA84200D885B920684069C043C3
:1024000040070BD5002044F8300F20216173A073E2
:10241000216941F0200121612073E4E720684069CF
:10242000C0434007DBD4002070BD00002DE9F04719
:10243000984617460D460446C1F30746DDF820903E
:102440002AE000BFB8F1FF3F26D0FEF721FCA0EB49
:102450000901414502D8B8F1000F1DD12068012EB5
:1024600016D0806925EA00000004000C12D000207C
:10247000B84211D1002044F8300F20216173A073BD
:10248000216941F02001216120730120BDE8F0871E
:102490004069E7E70120EBE72068012E0AD0806958
:1024A00025EA00000004000C06D00020B842C9D084
:1024B0000020EBE74069F3E70120F7E72DE9F0475B
:1024C000984616460D4604464FF000094FF0200A84
:1024D000C1F3074723E020684069C043400515D495
:1024E0002068016841F40071016021686FF4806028
:1024F0004861C4F8309084F83DA084F83E90216C87
:1025000041F00401216484F83C9021E0701C06D065
:10251000FEF7BEFBA0EB0800B04203D816B1012FB6
:102520001FD021E02068012F15D0806925EA000026
:102530000004000C18D000BF44F8309F84F80DA0B0
:1025400084F80E90216941F02001216184F80C90FB
:102550000120BDE8F087406925EA00000004000C76
:10256000EAD12068406901E02068806925EA00001E
:102570000004000CAFD1ECE770B516460D460446DA
:102580001EE02046FFF76CFE08B1012070BD681CFC
:1025900016D0FEF77DFB801BA84200D885B92068C5
:1025A0004069C04300060BD5002044F8300F2021BD
:1025B0006173A073216941F0200121612073E4E778
:1025C00020684069C0430006DBD4002070BD0000D5
:1025D0002DE9F84FDFF8FC9000224846DFF8F8C0FC
:1025E000D0E90261D9E900400B46341B61EB0001E0
:1025F000501EB4EB0C0C1546174671F1000C5ED35F
:10260000DFF8D8804FF0000CB8EB04047CEB010C31
:1026100055D34C46D4E904C1BCEB060661EB03017B
:102620002F4BF31A71F1000349D3DFF8B8C0002330
:10263000BCEB06068B4142D300234FF00309EA4668
:1026400009EB430808F1010C04EBCC0104EBC80CC6
:10265000D1E90061DCE9008CB6EB080661EB0C0106
:102660005206DFF88480120E6D1C4FF0000CB8EBA0
:1026700006067CEB010C01D242F00102082D04D1C8
:102680000AF80720002215467F1C5B1C202BD7DB95
:102690009DF80110C943CBB28DF801309DF80310AD
:1026A000C943CAB28DF803209DF80010994203D1A6
:1026B0009DF80230934204D00C4A00211160BDE81D
:1026C000F88F084600F0DCFB9DF8020000F0D8FB14
:1026D0000020F4E7801C002000127A008096980009
:1026E000E0673500C03B470340420F0098000020E0
:1026F0002DE9F04101F0AAFC254C264FD4E9042332
:10270000861A61EB030200231D46BE1B934100D2D3
:102710002560C4E90401204A236802EBC3065B1C60
:10272000C6E900012360042B06D0442B02D1FFF739
:102730004FFF2560BDE8F081D2E90260D2E90037A1
:102740000146F31A60EB0700144FDF1B70F100071E
:10275000F0D3DFF84CC00027BCEB03038741E9D37B
:10276000D2E90402801B62EB01020E49411A72F1A8
:102770000001DFD34FEAAC030021181A9141D9D3ED
:10278000002000F07DFB002000F07AFBD1E7000084
:102790009800002000E1F505801C002000127A005E
:1027A0008096980080841E00704700F069BA00008F
:1027B0002DE9F041141A641CA6B25C1A641CA7B27D
:1027C000DDF8188000F034F800250AE0002404E069
:1027D000404600F0B3F8641CA4B2B442F8D36D1CB8
:1027E000ADB2BD42F2D3064841880088491EBDE81B
:1027F000F041401E8BB282B20021084600F018B8AA
:10280000A01E002000F052BA00F09ABA10B5074C92
:102810004FF0807020606420FEF714F9A01520604E
:10282000BDE810403220FEF70DB900001014014041
:102830002DE9F041134C0746984615460E46A07AFE
:1028400000F034F8002000F01FF8F8B200F01CF897
:10285000002000F019F8E8B200F016F8207B00F034
:1028600025F8002000F010F8F0B200F00DF800207C
:1028700000F00AF808F0FF0000F006F8BDE8F041AB
:1028800000F026B8A01E002010B5064C4FF0806165
:102890002160491421600146034800F011FB201516
:1028A000206010BD101401400038004010B5064CE7
:1028B0004FF080612160491021600146034800F01B
:1028C000FFFA2015206010BD1014014000380040B0
:1028D0000148007AFFF7EABFA01E002010B50C46A1
:1028E000FFF7E4FFE0B2BDE81040FFF7CDBF000006
:1028F00011492A224A812B228A812C220A816E22A6
:10290000A02358B101280DD002280FD0032811D1DF
:102910000B804A8060213620FFF7E0BF0A804B80A1
:10292000C021F8E70B804A80A021F4E70A804B80A1
:102930000021F0E770470000A01E002070B5094C90
:1029400005464FF08060206040142060064E290A42
:10295000304600F0B5FAE9B2304600F0B1FA201581
:10296000206070BD10140140003800403EB50021C9
:102970001148009101910F4A029102608160017338
:10298000017501244FF460220461C2614160FDF7CA
:10299000E1FE08B1FDF733FE0320CDE90004062077
:1029A000029069460448FDF757FE002801D0FDF764
:1029B00026FE3EBD00240140B000002010B5FFF708
:1029C00021FFFFF7F2FEFFF7EFFE002106A2084607
:1029D000FFF71AFF01F01AFA044A0021044800F038
:1029E00077FD0449086010BD4F4B0000384E0008C9
:1029F000D52E0008000000202DE9F04F85B00025FD
:102A000041480095019502950395816941F00401C3
:102A10008161816901F004010491816941F08001C3
:102A20008161816901F080010491816941F0400177
:102A30008161816901F040010491816941F00801DF
:102A40008161816901F008010491816941F02001EF
:102A500081618069002200F02000049002212B484F
:102A6000FEF710F9DFF8A8A04FF4F047002239462E
:102A70005046FEF707F9DFF89CB04FF4807800224B
:102A800041465846FEF7FEF84FF470690022494669
:102A90002148FEF7F7F8022611200124CDE9006055
:102AA000CDE9024669461948FDF7F0FF01AA0097F3
:102AB00082E8700069465046FDF7E8FF01AACDF8AC
:102AC000008082E8700069465846FDF7DFFF03206A
:102AD000CDE90250CDE9009469460F48FDF7D6FFD5
:102AE000E00200900D48CDE9010469460748FDF772
:102AF000CDFF002205212820FEF792FB2820FEF7BB
:102B000081FB05B0BDE8F08F0010024000080140D5
:102B1000001C014000180140001401400000311069
:102B20000D4810B50B4901600C49416000214FF47C
:102B300080428160C0E9031241618161C16101622B
:102B4000FEF7ACF8002803D0BDE81040FDF757BDF4
:102B500010BD000000540040E0000020A0860100ED
:102B60000F4810B50D4901604FF48271416000219A
:102B70008160C1604FF400720161C0E90512C1615A
:102B80000162416281620A21C162FEF77DFE002876
:102B900003D0BDE81040FDF732BD10BD0038004045
:102BA0003401002010B592B000240F941C2108A815
:102BB0001094FDF78FFC20216846FDF78BFC204820
:102BC0001E4901604721C0E9011442F20F71C0E9BA
:102BD000031444618461FFF7F0F808B1FDF70FFDBD
:102BE0000F940FA916481094FEF704FF08B1FDF7E3
:102BF00006FD6020CDE908040A940B940C940D9412
:102C0000002208A90E480E94FFF771F808B1FDF7ED
:102C1000F6FC00944FF40050CDE904400294019476
:102C20000394694606480794FEF7BAFE08B1FDF71B
:102C3000E6FC0348FFF734F812B010BD002C014049
:102C40008C0100200C4810B50A4901604FF4165160
:102C50004160002181600C22C160C0E904128161E1
:102C6000C161FFF753FA002803D0BDE81040FDF71B
:102C7000C6BC10BD00380140D4010020FEE7FEE7CD
:102C800010B5A0B0002480216846FDF723FC002188
:102C9000204600F0A9F88021684600F0D9F8641CAD
:102CA000E4B2082CF3D320B010BD000010B502240C
:102CB000202000F0B9F8204600F0B6F81F48047054
:102CC0003F24A82000F0B0F8204600F0ADF8002422
:102CD000D32000F0A9F8204600F0A6F8402000F02C
:102CE000A3F8A12000F0A0F8C82000F09DF8002172
:102CF000084600F063F87F24812000F095F8204614
:102D000000F092F8A42000F08FF8A62000F08CF8D4
:102D1000D52000F089F8802000F086F88D2000F0A2
:102D200083F8142000F080F80021012000F046F81C
:102D3000BDE81040AF2000F077B800008C00002004
:102D40002DE9F04117460E46044600250BE03146BA
:102D5000204600F00FF8641CE4B20F2C02D90024C6
:102D6000B61CF6B26D1C7A5D002AF0D12846BDE88B
:102D7000F081000070B51646C206150E0C460729F4
:102D800018D80F2816D82946204600F02DF80A48F2
:102D9000082100EB0610064600F05AF8641CE0B269
:102DA000294600F021F806F10800BDE8704008212E
:102DB00000F04EB870BD0000864E000870B50C469D
:102DC000050001D0012D0ED10CB1012C0BD1DA2060
:102DD00000F02AF8280100EB4410BDE87040801C88
:102DE000C0B200F021B870BD70B50E4D0C46297808
:102DF000022905D1072803D8B030C0B200F014F87A
:102E0000287802280CD17F2C0AD804F00F0000F09B
:102E10000BF8102000EB1410BDE8704000F004B86F
:102E200070BD00008C0000201CB500218DF804103E
:102E30008DF805004FF4FA7000900448022301AAAF
:102E400078214068FDF7EEFF1CBD00008C000020DB
:102E50000EB54FF4FA728DE80700044801234022B2
:102E600078214068FEF774F80EBD00008C00002049
:102E70001921024A0020FDF7C5BB00008856000852
:102E8000084B10B599680A46491CCC1701EB5464ED
:102E900024F07F04091B5C68A14202D0024CA054BC
:102EA000996010BD98000020001C002003480068B5
:102EB000016841F0400101607047000034010020CA
:102EC00082689207FCD5C1608168C907FCD0C068E0
:102ED000C0B2704708B5094C4FF6FF754FF47A76CB
:102EE00000950021638822880846FFF761FCFFF700
:102EF000BFFF304601F0FCF9F2E70000A01E002001
:102F000010B5502080F31188BFF34F8FBFF36F8F40
:102F100001F0F0FD18B104494FF080500860002026
:102F200080F3118810BD000004ED00E030B595B0CD
:102F300028216846FDF7CEFA14210AA8FDF7CAFA3F
:102F400018210FA8FDF7C6FA0121080400240491F6
:102F5000CDE90010CDE908040294022507956846E2
:102F6000FEF702FB08B172B6FEE70F20CDE90A05B5
:102F70004FF48060CDE90C4000210AA80E94FEF7C2
:102F8000F7F908B172B6FEE70FA80F951194FEF796
:102F900079F9002801D072B6FEE715B030BD704750
:102FA0000148FEF7CABD00008C0100200148FEF771
:102FB000C4BD00008C0100200148FEF7BEBD00002A
:102FC0008C0100200148FEF7B8BD00008C010020F4
:102FD0000148FEF7B2BD00001C020020F0B50268F7
:102FE0001C4B1D4D1D4E1E4F1E4C4FF0804C9842E9
:102FF00009D0A04207D0604505D0A84203D0B04216
:1030000001D0B84204D122F0700E4A6842EA0E02A2
:10301000984209D0A04207D0604505D0A84203D00D
:10302000B04201D0B84203D122F44075CA682A43A5
:103030004D6922F080022A4302608A68C2620A68EF
:103040008262984201D0A04201D109690163012145
:103050004161F0BD002C0140000400400008004028
:10306000000C004000340140F0B5036A026A22F00F
:103070000102026242688469124E24F073050C68F2
:103080002C4323F002058B682B430D4DA84201D041
:10309000B04205D123F00807CB683B4323F004037B
:1030A000A84201D0B04205D14D6922F440721543C7
:1030B0008A692A4342608461496841630362F0BDC2
:1030C000002C014000340140F0B5026A036A23F08D
:1030D00010030362436884690D6824F4E64444EAFB
:1030E00005248D6822F0200242EA05120F4D104E91
:1030F000A84201D0B04206D1CF6822F0800242EA55
:10310000071222F04002A84201D0B04207D14D6917
:1031100023F4406343EA85038D6943EA85034360F2
:103120008461496881630262F0BD0000002C0140A7
:1031300000340140F0B5026A036A23F4807303622D
:103140004368C46922F4007224F073050C68124EBF
:103150002C438D6842EA05220E4DA84201D0B042B0
:1031600006D1CF6822F4006242EA072222F480628C
:10317000A84201D0B04207D14D6923F4405343EA3D
:1031800005138D6943EA05134360C4614968C1634F
:103190000262F0BD002C01400034014030B5046AE9
:1031A000026A22F4805202624268C3690D6823F405
:1031B000E64343EA05238D6824F4005444EA0534C9
:1031C000084DA84202D0084DA84204D14D6922F40E
:1031D000804242EA85124260C36149680164046228
:1031E00030BD0000002C01400034014010B5406AA1
:1031F0000021C185C184FEF751FE10BD01680C316C
:1032000051E8002F22F4907241E80023002BF5D101
:103210000168143151E8002F22F0010241E8002337
:10322000002BF5D1016B012909D101680C3151E85E
:10323000002F22F0100241E80023002BF5D12021BD
:1032400080F8421000210163704708B590F84210E1
:10325000222901D0022008BD82684FF480539A428F
:1032600001D1016921B1816A9A421BD04AB10AE0B9
:103270000268816A5268C2F308020A80816A891C66
:1032800008E0026972B10268526802F07F020A70B7
:10329000816A491C8162C18D491E0904090CC185DE
:1032A00003D01BE002685268F1E70168CA6822F0A7
:1032B0002002CA600168CA6822F48072CA6001688C
:1032C0004A6922F001024A61202180F8421000215F
:1032D0004163026B012A03D0FEF798FF002008BD6E
:1032E000016301680C3151E8002F22F0100241E81F
:1032F0000023002BF5D101680A68D20602D50A68BE
:1033000049680091818DFEF7C8FDE7E770B5044676
:1033100000680169E26821F44051114301612169AB
:10332000A0680843616908432168CA6841F20C63D8
:103330009A430243CA6020684169A26921F440713E
:10334000114341611E492068884202D1FEF7D6F838
:1033500001E0FEF7C3F800EBC00101EB001260686A
:1033600064218000B2FBF0F3B3FBF1F36FF01806B9
:103370007343B2FBF0F5B2FBF0F605EB83053223A5
:1033800003EB0515B5FBF1F5B6FBF1F605F0F0051D
:1033900005EB0615B2FBF0F6B2FBF0F0B0FBF1F076
:1033A0006FF01802504306EB800003EB0010B0FBF7
:1033B000F1F0216800F00F002844886070BD000023
:1033C0000038014081628285C2850021416422214A
:1033D00080F84210016921B10168CA6842F4807224
:1033E000CA6001684A6942F001024A610068C16826
:1033F00041F02001C1600020704700000148FEF745
:103400004FBD0000D4010020FEE70907090E002887
:1034100004DB00F1E02080F80014704700F00F009A
:1034200000F1E02080F8141D7047FDF769FEFFF7FA
:103430007DFDFFF7E1FAFFF773FBFFF7B3FBFFF743
:1034400001FCFFF793FAFFF78BFB00F005F8FFF79D
:10345000B5FA00F01DF8FEE7EFF3058058B9EFF379
:10346000108040B909490868022801D030B109E04C
:10347000EFF3118030B16FF0050070470120086054
:10348000002070474FF0FF307047000064000020BC
:1034900010B5EFF3058060B9EFF3108048B90B4920
:1034A0000868022802D0012806D00BE0EFF3118053
:1034B00040B16FF0050010BD0220086000F080FFF1
:1034C000002010BD4FF0FF3010BD00006400002050
:1034D000F0B585B04FEA01034FF00004EFF305812A
:1034E0000394A1BBEFF3108189BB2149096802292C
:1034F00002D1EFF3118151BB48B3802618218DF81A
:10350000104004AD42B3176807B13D4697691FB13B
:1035100039467F1E382F02D21779FF0702D00020CC
:1035200005B0F0BD576907B1BE08D2F808C0BCF1BC
:10353000000F0DD0D4685C2C18D312693AB137B1A2
:103540008DE806103246294601F095FA03900DE009
:10355000D7685FB912694AB903AACDE90012B2B2BD
:10356000294601F05BFA012800D003940398D7E7BD
:10357000640000202DE9F041134C0F4605466669B2
:103580002068001D00F084FD681C07D137B1216858
:10359000BDE8F0410D48091D00F0CABD2068354462
:1035A000B5424560216805D2A068BDE8F041091D1B
:1035B00000F0A6BD6068091D00F0A2FD206B8542E9
:1035C00000D22563BDE8F0811400002054070020DC
:1035D0002DE9F041054600F0B7FD2D4C2069401C57
:1035E000206120682B4F10B1E06930B32BE02560DB
:1035F0002069012827D1002606EB860007EB800012
:1036000000F070FD761C382EF6D3234800F06AFDDA
:103610002148143000F066FD1F48283000F062FD9C
:103620001D483C3000F05EFD1B48503000F05AFD54
:10363000194860601430A06005E02068E96AC06A3B
:10364000884200D82560E06A401CE0626864E86A4D
:10365000A169884200D9A06100EB800007EB8000DF
:10366000291D00F065FD00F08FFDE06900280CD0F9
:103670002068E96AC06A884207D208494FF0805042
:103680000860BFF34F8FBFF36F8FBDE8F08100007C
:1036900014000020A40200200407002004ED00E034
:1036A00038B500F051FD104CA068C8B90F4800F0C3
:1036B00019FD0E48143000F015FD0C482060143040
:1036C00060600A4B00202833009003F15002102163
:1036D0000A2000F047FFA06010B105A100F0D2FD64
:1036E000BDE8384000F050BD5000002068070020C1
:1036F000546D72510000000030B4026C0B46002A79
:103700000BD0C1681144C1604468A14201D3016873
:10371000C16030BC1846FCF73CBE30BC70472DE998
:10372000F041856B174604460026026C82B1C7B192
:10373000E068FCF72EFEE168206C091AE16022685F
:10374000914202D26168081AE060022F16D017E099
:103750002068A8B9606801F031FA06460020606070
:103760000EE0A068FCF715FE216CA0680844A0607C
:103770006168884204D32068A06001E005B16D1E35
:103780006D1CA5633046BDE8F08110B5044690F885
:10379000590058B101280CD002280FD0502080F3D6
:1037A0001188BFF34F8FBFF36F8FFEE7206B00F0E0
:1037B000FFFC2046BDE8104000F0FABC10BD000040
:1037C00010484FF44061420706D0C01D0D4920F05B
:1037D0000700411AC1F540610B4A00230144C2E9C8
:1037E00000030839103A21F0070111604B600B60AB
:1037F0000B1AC0E9001393604FF000405360D06093
:1038000070470000380F002078000020144E154C3F
:10381000A6F29C474FF08058DFF84C9012E000BFB2
:1038200000F092FCF068C568281D00F031FC2069AA
:10383000401E2061E068401EE06000F0A5FC2846C4
:10384000FFF7A3FFE0680028EAD138680128F9D91A
:10385000C9F80080BFF34F8FBFF36F8FF2E700000E
:10386000400700201400002004ED00E070B51D4664
:10387000049C51B1C4F80020C4E90F010121204685
:1038800000F0A4FE84F84C5070BD2460F4E72DE9EC
:10389000F0470E46DDE909841746824691009946B5
:1038A000089DA522206BFCF7EBFD6FF00301206B58
:1038B00001EB8701084420F00707780707D0502064
:1038C00080F31188BFF34F8FBFF36F8FFEE722188D
:1038D000315C82F83410315C11B1401C1028F6D3F1
:1038E000002684F84360382D00D33725E562C4E90B
:1038F0001356201D00F001FC04F1180000F0FDFB40
:103900002461C5F138006462A061666584F858607E
:103910004A465146384600F03BFA2060B8F1000FA5
:1039200001D0C8F80040BDE8F087000030B511496B
:1039300000E011460A688242FBD34B685C1884425F
:1039400003D1406818444860084643681C189442F4
:1039500009D1084C103C2468A24209D052681A448C
:1039600042600A6812680260814200D0086030BD7F
:103970000460F9E77800002070B5002441600B4D29
:103980000061914206D8D11A8269914206D2011D86
:10399000686807E09A4203D2994201D3012403E008
:1039A000011D286800F0ACFB204670BD50000020CF
:1039B00010B5044600F0C8FBA06B28B15FF000040E
:1039C00000F0E2FB204610BD0124F9E730B589B0D4
:1039D000304D55E00498002806DADDE90601059A25
:1039E0009047049800284BDB069C606910B1201DAD
:1039F00000F04EFB02A800F0B9F8024604980A282D
:103A00003ED2DFE800F00505053D263705053D26D9
:103A10000598A169034601442046FFF7ADFF00B3B6
:103A2000616A20468847E069012829D1002000907A
:103A30000598A169002342181946204601F0C8F9EB
:103A400078B9502080F31188BFF34F8FBFF36F8F89
:103A5000FEE70598A06128B1811813462046FFF7BC
:103A60008BFF0DE0502080F31188BFF34F8FBFF321
:103A70006F8FFEE794F82C0010B9204600F098FBF9
:103A8000002204A9A86800F0F3FE0028A2D109B022
:103A900030BD0000500000202DE9FC410F460546D6
:103AA00000F0D2FC01A800F061F80446019818B1BA
:103AB00001F0FCF8BDE8FC81224EAFB170680068EF
:103AC000A8B30027291B3A46B06800F0EFFB01F0CD
:103AD000EDF80028EED11C494FF080500860BFF38C
:103AE0004F8FBFF36F8FE5E7A542EBD801F0DEF80B
:103AF00030682746C068C468201D00F0C9FAE06934
:103B0000012810D1A0692B4641193A462046FFF7FB
:103B100033FF40B100200346014600902A4620466C
:103B200001F056F920B1616A20468847C2E707E0F4
:103B3000502080F31188BFF34F8FBFF36F8FFEE7E4
:103B40000127BFE75000002004ED00E0064841686F
:103B5000096829B14168C968C96849680163704743
:103B60004FF0FF31FAE700001400002070B5054661
:103B700000F0BAFF064E04463069844203D200F0DA
:103B800009F8012000E0002028602046346170BD63
:103B900050000020F8B5194D1FE0C068C4680668E1
:103BA000201D00F075FA616A20468847E069012807
:103BB00013D1A0693044B04206D924616060211D50
:103BC000286800F09DFA08E00020034601460090B6
:103BD0003246204601F0FCF838B128680168002917
:103BE000DBD16968C5E90010F8BD502080F3118869
:103BF000BFF34F8FBFF36F8FFEE700005000002030
:103C000008484068401C4FF0500080F3118804D0F1
:103C1000BFF34F8FBFF36F8FFEE7BFF34F8FBFF33D
:103C20006F8FFEE780000020074C2068016841B1DB
:103C3000C0680021D0F80000FFF72EFFFFF7C6FE96
:103C4000F3E701210020F7E7500000202DE9F041C3
:103C5000044600F079FA94F9455004F1240609E08D
:103C6000606A48B1304600F0E9FF08B100F06EFB31
:103C70006D1E6DB2002DF3DC4FF0FF3684F8456009
:103C800000F082FA00F060FA94F9445004F1100751
:103C900009E0206948B1384600F0D0FF08B100F0D3
:103CA00055FB6D1E6DB2002DF3DC84F84460BDE859
:103CB000F04100F069BA00002DE9F0410546002707
:103CC00000F0C2FB314E306808B9FFF779FDF068AB
:103CD00005424BD1C5B3083568070ED005F0070083
:103CE000C0F108000544680707D0502080F3118810
:103CF000BFF34F8FBFF36F8FFEE72DB37068854220
:103D000034D82248103001460C6801E020460C46A9
:103D10006168A94202D221680029F7D131688C423A
:103D200024D007682168016060680837411B1029AA
:103D30000FD96019420708D0502080F31188BFF3D3
:103D40004F8FBFF36F8FFEE710E041606560FFF7B4
:103D5000EDFD61687068401A7060B268904200D2F0
:103D6000B060F06801430020C4E9000100F09EFF4C
:103D7000780707D0502080F31188BFF34F8FBFF32F
:103D80006F8FFEE73846BDE8F08100006800002034
:103D900010B5031F4FF080741C601B1F21F0010140
:103DA0001960191F024B0B60143940380A6010BDAE
:103DB000013C00082DE9F041124C8046002160884A
:103DC000401E83B22088401E82B20846FEF730FDB6
:103DD0000D4E4FF08060306040143060002509E0E7
:103DE000002703E04046FEF7A9FD7F1C2088B8426B
:103DF000F8D86D1C6088A842F2D84FF4806030601B
:103E0000BDE8F081A01E00201014014010B5FFF79E
:103E10004DF8FEF7FBFC1120FEF748FD7820FCF77B
:103E200011FEB120FEF742FD0120FEF72DFD2C20F2
:103E3000FEF72AFD2D20FEF727FDB220FEF736FD06
:103E40000120FEF721FD2C20FEF71EFD2D20FEF7A0
:103E50001BFDB320FEF72AFD0120FEF715FD2C20E7
:103E6000FEF712FD2D20FEF70FFD0120FEF70CFDE1
:103E70002C20FEF709FD2D20FEF706FDB420FEF7ED
:103E800015FD0720FEF700FDC020FEF70FFDA22064
:103E9000FEF7FAFC0220FEF7F7FC8420FEF7F4FCA4
:103EA000C120FEF703FDC520FEF7EEFCC220FEF7A1
:103EB000FDFC0A20FEF7E8FC0020FEF7E5FCC3202D
:103EC000FEF7F4FC8A20FEF7DFFC2A20FEF7DCFC7C
:103ED000C420FEF7EBFC8A20FEF7D6FCEE20FEF7AE
:103EE000D3FCC520FEF7E2FC0E20FEF7CDFC362009
:103EF000FEF7DCFCC020FEF7C7FCE020FEF7D6FC96
:103F00000F20FEF7C1FC1A20FEF7BEFC0F20FEF7C3
:103F1000BBFC1820FEF7B8FC2F20FEF7B5FC2820CC
:103F2000FEF7B2FC2020FEF7AFFC2220FEF7ACFC2F
:103F30001F20FEF7A9FC1B20FEF7A6FC2320FEF79E
:103F4000A3FC3720FEF7A0FC0020FEF79DFC072015
:103F5000FEF79AFC0220FEF797FC1020FEF794FC77
:103F6000E120FEF7A3FC0F20FEF78EFC1B20FEF7DE
:103F70008BFC0F20FEF788FC1720FEF785FC332012
:103F8000FEF782FC2C20FEF77FFC2920FEF77CFC4C
:103F90002E20FEF779FC3020FEF776FC3020FEF76D
:103FA00073FC3920FEF770FC3F20FEF76DFC00200B
:103FB000FEF76AFC0720FEF767FC0320FEF764FCAF
:103FC0001020FEF761FC2A20FEF770FC0020FEF7AF
:103FD0005BFC0020FEF758FC0020FEF755FC7F201C
:103FE000FEF752FC2B20FEF761FC0020FEF74CFC94
:103FF0000020FEF749FC0020FEF746FC9F20FEF75C
:1040000043FCF020FEF752FC0120FEF73DFCF620B9
:10401000FEF74CFC0020FEF737FC3A20FEF746FC8A
:104020000520FEF731FC2920FEF740FC0320FEF7B7
:104030005FFC05494FF400600860BDE810404FF692
:10404000FF70FFF7B7BE0000101401402DE9F041EA
:104050000D4CFCF71DFE22680023516AD26A0B4DFD
:10406000A0FB054703FB057500FB0355074FA1FBAC
:10407000070C03FB07C701FB0371FCF713F90019D9
:104080006941BDE8F08100001C02002040420F00A1
:10409000D0E9013201699A60D0E901235A604A6887
:1040A000824201D182684A60002202610868401E93
:1040B0000860086870470000034B036003F15C0070
:1040C000086080201060704780080020044B036067
:1040D00003F15C0008604FF48070106070470000CE
:1040E000DC0A002000F108014FF0FF32C0E90112A4
:1040F000C1600161002101607047002101617047CA
:1041000030B50B685A1C02D000F1080202E00269C7
:1041100004E02246546825689D42FAD953684B60F2
:1041200099608A60516008610168491C016030BD76
:1041300042684A6093688B60936859609160086137
:104140000168491C01607047502080F31188BFF35B
:104150004F8FBFF36F8F0A494868401C48600128A1
:104160000CD10848006810F0FF0F07D0502080F3F2
:104170001188BFF34F8FBFF36F8FFEE770470000CA
:104180008000002004ED00E00849486828B1401E86
:10419000486001D180F311887047502080F3118866
:1041A000BFF34F8FBFF36F8FFEE70000800000204A
:1041B00070B5002827D0144DA0F108046168E868A4
:1041C000014207D1502080F31188BFF34F8FBFF316
:1041D0006F8FFEE722683AB1502080F31188BFF359
:1041E0004F8FBFF36F8FFEE78143616000F02CF9C2
:1041F00060686968084468602046FFF797FBBDE87F
:10420000704000F053BD70BD680000204FF0E0200A
:1042100000210161816105494FF47A720968B1FB9F
:10422000F2F1491E41610721016170471000002031
:1042300010B5FCF713F8114910280ED300F1E02057
:1042400090F8F0030A78904207D2502080F311884A
:10425000BFF34F8FBFF36F8FFEE70948006889688F
:1042600000F4E060884207D9502080F31188BFF342
:104270004F8FBFF36F8FFEE710BD0000800000205E
:104280000CED00E010B5084B002200BF53F832409F
:104290001CB1521C082AF9D310BD43F8321003EBAD
:1042A000C201486010BD00006402002070B51546D0
:1042B0000E460446FFF748FF94F944100020491CBD
:1042C00001D184F8440094F94510491C01D184F8C7
:1042D0004500FFF759FFA06B28B92A46314604F183
:1042E000240000F051F82046BDE87040FFF7AEBC56
:1042F00010B5020014D00F48806B38B1502080F305
:104300001188BFF34F8FBFF36F8FFEE700F09CF86B
:1043100000211046FFF72EF900F0C8FC002807D155
:1043200005494FF080500860BFF34F8FBFF36F8F88
:1043300010BD00001400002004ED00E002498A6A6C
:104340000260496941607047140000200149012062
:10435000486270471400002010B50C4650B109495E
:1043600009681831FFF7CCFE2046BDE81040012156
:10437000FFF700B9502080F31188BFF34F8FBFF3D0
:104380006F8FFEE71400002070B514460D4668B12B
:104390000A4909681831FFF7CBFE0CB14FF0FF3521
:1043A00021462846BDE87040FFF7E4B8502080F36E
:1043B0001188BFF34F8FBFF36F8FFEE7140000200B
:1043C00030B587B00024039405AA04A903A8049477
:1043D000FFF772FEDDE903010094CDE9011000232F
:1043E00015A11748059A00F046FB164D0028686392
:1043F0001FD000F0BDFC012809D0401C19D150206D
:1044000080F31188BFF34F8FBFF36F8FFEE750200B
:1044100080F31188BFF34F8FBFF36F8F4FF0FF30E2
:1044200028630120E8616C6107B0BDE8304000F00E
:1044300045B807B030BD000049444C4500000000BD
:104440000D380008140000200248816B491C81636C
:104450007047000014000020164810B5816B11B1A0
:104460000121416210BD002141628169124A01E0CF
:10447000B9B1491E01EB810352F82330002BF7D06C
:1044800001EB810302EB830202F1080453685B68CD
:104490005360A34201D15B685360DA6802608161B6
:1044A00010BD502080F31188BFF34F8FBFF36F8F83
:1044B000FEE7000014000020A40200201CB52649DD
:1044C00008780190FF20087008788DF800009DF8AA
:1044D00000009DF8002000F0F000904207D050202E
:1044E00080F31188BFF34F8FBFF36F8FFEE79DF806
:1044F00000001A4B00F0500018700720986005E08B
:104500009DF8002052008DF80020401E9DF80020EC
:104510001206F5D49860032807D0502080F3118844
:10452000BFF34F8FBFF36F8FFEE74FF4407098607B
:10453000019808700A48016841F47001016001683F
:1045400041F070410160FFF761FE00205860FBF709
:104550004FFE00201CBD000000E400E080000020B1
:1045600020ED00E038B5049D18B153B1CAB181B156
:1045700020E0502080F31188BFF34F8FBFF36F8F7F
:10458000FEE7502080F31188BFF34F8FBFF36F8F8A
:10459000FEE7502080F31188BFF34F8FBFF36F8F7A
:1045A000FEE739B1502080F31188BFF34F8FBFF37E
:1045B0006F8FFEE750241C46012384F846302B46BB
:1045C0000094FFF753F9204638BD000070B50D4642
:1045D000040025D0FFF7B8FDD4E90F20216802FBC5
:1045E000001161600021A1632168A1600A46D4E93D
:1045F0000F01401E00FB0121E16021464FF0FF301A
:1046000001F8440F487004F110008DB1FFF76AFD06
:1046100004F12400FFF766FDFFF7B6FD012070BD31
:10462000502080F31188BFF34F8FBFF36F8FFEE7E9
:1046300021690029F0D000F001FB0028ECD00449EA
:104640004FF080500860BFF34F8FBFF36F8FE3E7E9
:1046500004ED00E02DE9FF4782B01D468A464FF089
:104660000008040003D0BAF1000F08D011E0502078
:1046700080F31188BFF34F8FBFF36F8FFEE7206C7D
:1046800038B1502080F31188BFF34F8FBFF36F8F85
:10469000FEE7022D0AD1E06B012807D0502080F3FD
:1046A0001188BFF34F8FBFF36F8FFEE700F00EFA54
:1046B0003F4F4FF000094FF0805648B9049838B189
:1046C000502080F31188BFF34F8FBFF36F8FFEE749
:1046D000FFF73AFDA06BE16B884207D3022D05D0AE
:1046E0000498D0B1B8F1000F1AD01EE02A46514606
:1046F0002046FFF714F8616A19B104F1240000F0B4
:104700009DFA20B13E60BFF34F8FBFF36F8FFFF76D
:104710003BFD012006B0BDE8F087FFF735FD22E044
:104720006846FFF70BFE4FF00108FFF72DFDFFF77E
:104730008BFEFFF709FD94F94400401C01D184F879
:10474000449094F94500401C01D184F84590FFF74E
:104750001BFD04A9684600F027F930B12046FFF799
:1047600075FA00F0A3FA0020D4E7FFF7EDFCA06B88
:10477000E16B884213D1FFF707FD04F110000499A3
:10478000FFF7EAFD2046FFF761FA00F08FFA0028F4
:104790009ED13E60BFF34F8FBFF36F8F98E7FFF757
:1047A000F3FC2046FFF752FA00F080FA90E7000091
:1047B00004ED00E02DE9F0471F46904689460400CD
:1047C00003D0B9F1000F08D011E0502080F3118818
:1047D000BFF34F8FBFF36F8FFEE7206C38B15020CF
:1047E00080F31188BFF34F8FBFF36F8FFEE7022F67
:1047F0000AD1E06B012807D0502080F31188BFF365
:104800004F8FBFF36F8FFEE7FFF712FD5020EFF3DE
:10481000118680F31188BFF34F8FBFF36F8FA06BAA
:10482000E16B884206D3022F04D0002086F3118862
:10483000BDE8F08794F945503A4649462046FEF7D0
:104840006EFF681C04D06D1C84F845500120EDE714
:10485000606A0028FAD004F1240000F0EFF9002883
:10486000F4D0B8F1000FF1D00121C8F80010EDE745
:104870002DE9F747002683B08A46040003D0BAF139
:10488000000F08D011E0502080F31188BFF34F8F44
:10489000BFF36F8FFEE7206C38B1502080F3118892
:1048A000BFF34F8FBFF36F8FFEE700F00FF9DFF814
:1048B000F4804FF000094FF0805748B9059838B19F
:1048C000502080F31188BFF34F8FBFF36F8FFEE747
:1048D000FFF73AFCA56BC5B151462046FEF70CFF29
:1048E0006D1EA563206950B104F1100000F0A6F917
:1048F00028B1C8F80070BFF34F8FBFF36F8FFFF779
:1049000043FC012006B0BDE8F087059808B11EB150
:1049100006E0FFF739FC27E06846FFF70FFD0126A8
:10492000FFF732FCFFF790FDFFF70EFC94F944000F
:10493000401C01D184F8449094F94500401C01D1F9
:1049400084F84590FFF720FC05A9684600F02CF894
:10495000002820460AD0FFF779F900F0A7F9204691
:10496000FFF726F80028B3D00020CBE7FFF720F8A8
:1049700090B104F124000599FFF7EEFC2046FFF703
:1049800065F900F093F90028A2D1C8F80070BFF3D0
:104990004F8FBFF36F8F9BE72046FFF757F900F06B
:1049A00085F995E704ED00E02DE9F0410C4605009E
:1049B00011D0C4B1FFF7C8FB174B5A696E68206865
:1049C000911B471C17D02F689B6A9F4219D09642B3
:1049D00017D8012410E0502080F31188BFF34F8FC7
:1049E000BFF36F8FFEE7502080F31188BFF34F8F26
:1049F000BFF36F8FFEE70024FFF7C6FB2046BDE83C
:104A0000F081884205D9401A20602846FFF796FCBD
:104A1000F1E700202060DCE7140000202DE9FF5FB3
:104A20008346DDE90E87994616468A469000FFF7D1
:104A300043F905001CD05C20FFF73EF9040014D0B8
:104A40000020256384F85900CDE90240CDE90087B4
:104A50004B46324651465846FEF719FF2046FEF7B0
:104A6000B7FD012004B0BDE8F09F2846FFF7A0FB8A
:104A70004FF0FF30F6E7F0B585B0DDE90B640A9D35
:104A8000A6B1DCB15C2700972663022684F8596042
:104A9000002604AFCDE90246CDE90057FEF7F7FE48
:104AA0002046FEF795FD049805B0F0BD502080F338
:104AB0001188BFF34F8FBFF36F8FFEE7502080F355
:104AC0001188BFF34F8FBFF36F8FFEE70548C169B1
:104AD00019B1806B18B10020704701207047022087
:104AE0007047000014000020014840697047000032
:104AF000140000202DE9F0412E4C0027A06B40B19E
:104B0000206A401C2062606A00B101273846BDE877
:104B1000F0816669761C666113D16068006838B1FF
:104B2000502080F31188BFF34F8FBFF36F8FFEE7E4
:104B30006068A1686160A060A06A401CA062FFF785
:104B400005F8206BDFF87080864209D36068006842
:104B500080B16068C068C568686886420DD220630D
:104B60002068C06A00EB800158F821000128CAD9EA
:104B70000127C8E74FF0FF30F1E7281DFFF788FA5B
:104B8000A86A18B105F11800FFF782FAE86AA1696E
:104B9000884200D9A06100EB800108EB8100291D4B
:104BA000FFF7C6FAE86A2168C96A8842CED30127AE
:104BB000CCE7000014000020A402002070B504001F
:104BC0004FF0000133D01B4D2868844207D050209D
:104BD00080F31188BFF34F8FBFF36F8FFEE7206D17
:104BE00038B1401E2065E36CE26A9A421FD040B1A2
:104BF0001DE0502080F31188BFF34F8FBFF36F8FFC
:104C0000FEE7201DFFF744FAE06CE062C0F13800D7
:104C1000A061E06AA969884200D9A861064900EB51
:104C2000800001EB8000211DFFF782FA0121084678
:104C300070BD000014000020A402002070B5C06800
:104C4000C46854B104F118000646FFF721FA144D68
:104C5000A86B50B13146134815E0502080F31188FD
:104C6000BFF34F8FBFF36F8FFEE7201DFFF710FAE2
:104C7000E06AA969884200D9A8610B4900EB80006D
:104C800001EB8000211DFFF753FAE06A2968C96A29
:104C9000884202D90120686270BD002070BD00000A
:104CA000140000202C070020A40200202DE9F0476A
:104CB0002C4D00242746A86B38B1FFF745FAA86BA6
:104CC000401EA863A86B40B146E0502080F31188D5
:104CD000BFF34F8FBFF36F8FFEE72969224E01208C
:104CE000D1B3A6F5916980463068E0B1F068C46838
:104CF00004F11800FFF7CCF9201DFFF7C9F9E06AAD
:104D0000A969884200D9A86100EB800109EB810004
:104D1000211DFFF70DFAE06A2968C96A8842E3D3CA
:104D2000C5F82480E0E70CB1FEF710FF2C6A4CB107
:104D30004FEA0806FFF7DEFE00B16E62641EF9D18D
:104D400000202862686A38B10849012738070860DE
:104D5000BFF34F8FBFF36F8FFFF716FA3846BDE8EA
:104D6000F0870000140000202C07002004ED00E074
:104D700010B586B0FEF794FC114CA068B8B10020C5
:104D80000390049005AA04A903A8FFF79FF9DDE9A1
:104D9000032102208DE8070000230AA10B48059A91
:104DA000FFF769FEE06010B106B0012010BD502091
:104DB00080F31188BFF34F8FBFF36F8FFEE70000C2
:104DC00050000020546D722053766300293C000887
:104DD0002DE9FF411E46134602000A9D4FF00000D8
:104DE00016D0144CA768002F0FD0CDE90013029203
:104DF000062917DAFFF76AFE02284FF000030FD0EA
:104E000000226946A068FFF725FC04B0BDE8F081E8
:104E1000502080F31188BFF34F8FBFF36F8FFEE7F1
:104E20002A46EEE70023324669463846FFF7C2FCC1
:104E3000EBE7000050000020986F00080000000021
:104E40000000000000000000000000000002000060
:104E50001800000000000000000000000102020332
:104E60000405060708090A0B0C0D0E0F10100000B0
:104E7000000000000000010203040607080900000A
:104E80000000010203040000000000000000000018
:104E900000000000000000FE020202020202003FC9
:104EA0002020202020200000000000000000000042
:104EB00000000000000000FE020202020202003FA9
:104EC00020202020202000FE020202020202003FD9
:104ED00020202020202000FE020202020202003FC9
:104EE00020202020202000FE020202020202003FB9
:104EF00020202020202000FE020202020202003FA9
:104F000020202020202000FE020202020202003F98
:104F100020202020202000000000000000000000D1
:104F20000000000000000000000000000000000081
:104F30000000000000000000000000000000000071
:104F400000000000000000FE020202020202003F18
:104F500020202020202000FE020202020202003F48
:104F600020202020202000FE020202020202003F38
:104F700020202020202000FE020202020202003F28
:104F800020202020202000FE020202020202003F18
:104F900020202020202000FE020202020202003F08
:104FA00020202020202000FE020202020202003FF8
:104FB00020202020202000FE020202020202003FE8
:104FC00020202020202000FE020202020202003FD8
:104FD00020202020202000FE020202020202003FC8
:104FE00020202020202000FE020202020202003FB8
:104FF00020202020202000FE020202020202003FA8
:1050000020202020202000FE020202020202003F97
:1050100020202020202000FE020202020202003F87
:1050200020202020202000FE020202020202003F77
:1050300020202020202000FE020202020202003F67
:1050400020202020202000000000000000000000A0
:105050000000000000000000000000000000000050
:105060000000000000000000000000000000000040
:105070000000000000000000000000000000000030
:105080000000000000000000000000000000000020
:10509000000000000000000000F800000000000018
:1050A00000330000000000100C02100C0200000091
:1050B0000000000000000040C07840C078000004FC
:1050C0003F04043F040000708888FC08300000188A
:1050D0002020FF211E00F008F08060180000003141
:1050E0000C031E211E0000F00888700000001E2125
:1050F000232C1927211000120E00000000000000D0
:10510000000000000000000000E0180402000000A1
:1051100000071820400000020418E00000000040D2
:10512000201807000000404080F08040400002024C
:10513000010F0102020000000000E0000000000179
:1051400001010F01010100000000000000000090BB
:1051500070000000000000000000000000000001DE
:10516000010101010100000000000000000000300A
:1051700030000000000000000000C03804000060A3
:1051800018070000000000E010080810E000000F01
:10519000102020100F0000001010F8000000000088
:1051A00020203F202000007008080808F000003090
:1051B00028242221300000300808088870000018D8
:1051C000202121221C000000804030F80000000651
:1051D0000524243F242400F8888888080800001942
:1051E000202020110E0000E0108888900000000FA1
:1051F000112020201F0000180808886818000000EF
:10520000003E010000000070880808887000001C43
:10521000222121221C0000F008080810E0000001F3
:10522000122222110F00000000C0C0000000000088
:10523000003030000000000000800000000000008E
:1052400000E0000000000000804020100800000185
:10525000020408102000004040404040400000028E
:10526000020202020200000810204080000000201C
:10527000100804020100007048080888700000004F
:10528000003037000000C030C828E810E0000718E0
:1052900027282F2817000000C038E0000000203C1D
:1052A00023020227382008F8888888700000203FF1
:1052B000202020110E00C030080808083800071808
:1052C00020202010080008F808080810E000203FFF
:1052D000202020100F0008F88888E8081000203FE0
:1052E00020202320180008F88888E8081000203FB4
:1052F000200003000000C03008080838000007182C
:105300002020221E020008F808000008F808203FAC
:10531000210101213F20000808F8080800000020B2
:10532000203F2020000000000808F8080800C08086
:1053300080807F00000008F888C028180800203FFF
:1053400020012638200008F8080000000000203F57
:1053500020202020300008F8F800F8F80800203F4E
:10536000013E013F200008F830C00008F808203F47
:10537000200007183F00E01008080810E0000F1098
:10538000202020100F0008F808080808F000203F2F
:10539000210101010000E01008080810E0000F10D2
:1053A000282830504F0008F8888888887000203FEF
:1053B0002000030C302000708808080838000038EE
:1053C000202121221C00180808F8080818000000F5
:1053D000203F2000000008F808000008F808001F1F
:1053E000202020201F000878880000C8380800000E
:1053F00007380E01000008F800F800F80800000364
:105400003E013E03000008186880806818082030BC
:105410002C03032C30200838C800C83808000000CE
:10542000203F2000000010080808C8380800203875
:10543000262120201800000000FE020202000000C9
:10544000007F40404000000438C000000000000021
:1054500000010638C00000020202FE000000004009
:1054600040407F0000000000040202040000000031
:10547000000000000000000000000000000080802C
:105480008080808080800002020400000000000014
:105490000000000000000000808080000000001973
:1054A0002424123F200010F0008080000000003F04
:1054B000112020110E000000008080800000000EEE
:1054C000112020201100000080808090F000001F3B
:1054D000202020103F200000808080800000001FDE
:1054E000242424241700008080E0909020000020D5
:1054F000203F202000000000808080808000006B22
:1055000094949493600010F0008080800000203F0D
:10551000210000203F20008098980000000000201B
:10552000203F20200000000000809898000000C06C
:105530008080807F000010F0000080808000203F8D
:10554000240629302000001010F800000000002080
:10555000203F202000008080808080808000203FCD
:1055600020003F20003F8080008080800000203F9E
:10557000210000203F200000808080800000001F6C
:10558000202020201F00808000808000000080FFFD
:10559000912020110E000000008080008000000E8D
:1055A00011202091FF80808080008080800020205A
:1055B0003F212000010000008080808080000033B7
:1055C000242424241900008080E080800000000052
:1055D000001F202010008080000000808000001F3D
:1055E000202020103F2080808000808080000003E9
:1055F0000C300C0300008080008080008080010E51
:10560000300C073806010080808000808000002078
:10561000310E2E312000808080000080808000814B
:10562000867818060100008080808080800000213C
:10563000302C222130000000000000FC020200009B
:105640000000013E404000000000FF00000000009C
:105650000000FF0000000202FC00000000004040CB
:105660003E010000000000020102020402000000EE
:10567000000000000000000000000000000000002A
:105680000000000000000000F79BF79BF79CF79CD0
:10569000F77BF77BF77BF77BF77BF75AF75AF75BDC
:1056A000F77BF79AF779EF59F779F779F779F7599F
:1056B000F738FF59FF59FF7AFF9AF79AF79AF7BA26
:1056C000F7BAFF9BFF9BF7BBF7BBF7BBFF9BF79BB3
:1056D000F77BF77BF77CEF9CEF7CEF9BF77BF77B0F
:1056E000F77BF77BF77CF77BF77BEF7BEF7BF77B39
:1056F000F79BEF7BEF7BF79BF79BEF7BF77BF77BD2
:10570000EF7BEF7BF77BF77BEF5BEF5AEF5AEF3ADC
:10571000EF3AEF5AEF5AEF3AEF3AEF5AEF5AEF3AC1
:10572000EF5AF75AEF5BF77BEF5BEF5BEF7BEF5BDB
:10573000EF5BEF5BEF5BEF5AEF3AE6F8E6F8EF1955
:10574000EF3AEF39EF17EED5EED6EEF6EED6EE9451
:10575000EE73EE94F694EE73EE95EED6F6F7F6F65B
:10576000F6F6F6F7F718EF38EF38EF39EF39EF596B
:10577000EF39EF19F719EF19EF1AEF19EF19EF1ABF
:10578000E719E719EF1AEF19E739E739E739E719A8
:10579000E719E719E6FAE719E719E719E719E71929
:1057A000E719E719E719E719E719E719E6F9DEF943
:1057B000DED9DEF8DEF8DEF9DEF9DEF9DEF9E6F94B
:1057C000E6F9E6F9E719EF5BEF3AEF5BEF5BEF5ACB
:1057D000E73AE6F9E719EF3AEF1AE719E718EF1990
:1057E000EF19EF38EEF6EE93EE11DD6EDD4ED4ECF0
:1057F000D48ADCCBDCABCC08D46AE52DE52DDCEB20
:10580000D50CE56FE58FE5F0EE53EEB4EED5EEF591
:10581000EEF6EEB5EEB6E6F7EEF8E6F6E6F7EEF8FB
:10582000E6F7E6F7E717E6F8E6F7E6F7E6F8E6F76D
:10583000E6F7E6F8E6F8E6F7E6F7E6F8E6F8E6F87B
:10584000E6F8E719E718E6F9E719E719E6F8DEF9E7
:10585000DEF9DEF8DF19DEF9E6F9E6F9E719E6F92F
:10586000E719E719EF1AEF3BEF3AEF3AEF3AEF3962
:10587000E6F8DEB7DE96E6D7EEF8E718E717EEF7BC
:10588000F6D7EE94E5F0DCECC3C6BB24CB85C3248D
:10589000BAA2CB03CB04BA62C323D3E6CBC5C323DE
:1058A000C364D3C6C344C385D469DCEBDD2CDD8E71
:1058B000E5EFE5CFDDCFDE51E693DE31DE31E653B5
:1058C000DE53DE52DE94DEB5E695E6B5E6B6E6B525
:1058D000DE94DEB5E6B6DE94DE74DE75E695E6B5FA
:1058E000DEB6E6D7E6D7E6D7E6F8E6F8E6F8E6F875
:1058F000E6F8E718E718E719E719E719E719E719CC
:10590000EF39EF3AEF3AF75BE719E719EF19EF19BB
:10591000DED7DE96DEB7DEB6DE96DED6E6F6F6D665
:10592000EE11D4EBCC07CBC6BAE2BAA2D385C345FD
:10593000C304CB65CB24BA82C344D407CBA6C3032C
:10594000CB84DBE7CB64C343CBA5C384BB23BB853C
:10595000CC48C448CCAAD58DD5CFD58DCD6DCD8FB3
:10596000CD6EC56ECD90CDB1C590C5B0C5B1BD7081
:10597000BD70C5B1C5D3C5B1BD4FBD50BD4FBD7024
:10598000C5B2C5D3CDF3CE13D635D675D675DE9652
:10599000DEB7DED7E6F7E6F8E6F8E719E719E71924
:1059A000EF39EF3AEF3AF75BE719E719E719E7192B
:1059B000DED8DEB7E6F8E6F8E6B7DE95E674EE3256
:1059C000D4CBCC06D427DC69D3E7D429DCECDD4D7D
:1059D000DD6DED8DDC69D3C6E50CE56EDD2DD48A79
:1059E000D489D4AAD448DC47DC67D3E6CB43CB6464
:1059F000CBE6BB85C3E7CCA9D54DDD2CD54DCDAFCE
:105A0000D5AFCD8FCD90CD91C570BD6FBD70B50EAA
:105A1000B50EB550B571BD70BD4FBD70BD4FBD4F1A
:105A2000B571BD92C5B2C5B2C5F4CE55D655D676C0
:105A3000D697DEB7DED7DED8E6F8E6F8E719E7193D
:105A4000EF19EF39EF3AEF3AE719E719E719E719D4
:105A5000E6D8DEB7E6F7E6F7EED6EE73D50CD48AD5
:105A6000CBC6CB84D406E50BE5AFF672F693EE9386
:105A7000E672F651DCCAD428F60FF6B2EEB3EE7237
:105A8000EE51EDEFD4A9CBE6D427D3C6CAE3CAE3DF
:105A9000D3A5C364D3E7DC69D469C386C3C7D4EB99
:105AA000DD4CE5AEDE31DE52E632E653E674DE531F
:105AB000DE53DE73D654D632CDF2D633D633DE5330
:105AC000DE75DE95DE54CE13D655DE95DE96DEB756
:105AD000E6D8E6F8E6F8E6F8E6F8E718E719E71991
